{
  "_format": "hh-sol-artifact-1",
  "contractName": "PancakeswapArbitrage",
  "sourceName": "contracts/PancakeswapArbitrage.sol",
  "abi": [
    {
      "inputs": [
        {
          "internalType": "address",
          "name": "_sra",
          "type": "address"
        }
      ],
      "stateMutability": "nonpayable",
      "type": "constructor"
    },
    {
      "inputs": [
        {
          "internalType": "address",
          "name": "inCoinAddress",
          "type": "address"
        },
        {
          "internalType": "uint256",
          "name": "approvingSwapIn",
          "type": "uint256"
        },
        {
          "internalType": "bytes",
          "name": "callData0",
          "type": "bytes"
        },
        {
          "internalType": "address",
          "name": "midCoinAddress",
          "type": "address"
        },
        {
          "internalType": "bytes",
          "name": "callData1",
          "type": "bytes"
        }
      ],
      "name": "attack",
      "outputs": [],
      "stateMutability": "nonpayable",
      "type": "function"
    },
    {
      "inputs": [],
      "name": "smartRouterAddress",
      "outputs": [
        {
          "internalType": "address",
          "name": "",
          "type": "address"
        }
      ],
      "stateMutability": "view",
      "type": "function"
    }
  ],
  "bytecode": "0x608060405234801561001057600080fd5b506040516110e53803806110e58339818101604052810190610032919061014a565b600073ffffffffffffffffffffffffffffffffffffffff168173ffffffffffffffffffffffffffffffffffffffff16036100a1576040517f08c379a0000000000000000000000000000000000000000000000000000000008152600401610098906101d4565b60405180910390fd5b806000806101000a81548173ffffffffffffffffffffffffffffffffffffffff021916908373ffffffffffffffffffffffffffffffffffffffff160217905550506101f4565b600080fd5b600073ffffffffffffffffffffffffffffffffffffffff82169050919050565b6000610117826100ec565b9050919050565b6101278161010c565b811461013257600080fd5b50565b6000815190506101448161011e565b92915050565b6000602082840312156101605761015f6100e7565b5b600061016e84828501610135565b91505092915050565b600082825260208201905092915050565b7f496e76616c696420726f75746572206164647265737300000000000000000000600082015250565b60006101be601683610177565b91506101c982610188565b602082019050919050565b600060208201905081810360008301526101ed816101b1565b9050919050565b610ee2806102036000396000f3fe608060405234801561001057600080fd5b50600436106100365760003560e01c8063bf9c11d91461003b578063d62b173e14610057575b600080fd5b61005560048036038101906100509190610a18565b610075565b005b61005f6106d6565b60405161006c9190610ae3565b60405180910390f35b6100b36040518060400160405280600b81526020017f74726164652073746172740000000000000000000000000000000000000000008152506106fa565b6100bc87610793565b6100c583610793565b6100ce33610793565b6100d730610793565b6100e08661082c565b8673ffffffffffffffffffffffffffffffffffffffff166323b872dd3360008054906101000a900473ffffffffffffffffffffffffffffffffffffffff16896040518463ffffffff1660e01b815260040161013d93929190610b0d565b6020604051808303816000875af115801561015c573d6000803e3d6000fd5b505050506040513d601f19601f820116820180604052508101906101809190610b7c565b506101bf6040518060400160405280601581526020017f7472616465207472616e7366657246726f6d206f6b00000000000000000000008152506106fa565b60008060008054906101000a900473ffffffffffffffffffffffffffffffffffffffff1673ffffffffffffffffffffffffffffffffffffffff168787604051610209929190610be8565b6000604051808303816000865af19150503d8060008114610246576040519150601f19603f3d011682016040523d82523d6000602084013e61024b565b606091505b509150915081610290576040517f08c379a000000000000000000000000000000000000000000000000000000000815260040161028790610c5e565b60405180910390fd5b6102ce6040518060400160405280601481526020017f7472616465206669727374207472616465206f6b0000000000000000000000008152506106fa565b60008573ffffffffffffffffffffffffffffffffffffffff166370a08231306040518263ffffffff1660e01b81526004016103099190610ae3565b602060405180830381865afa158015610326573d6000803e3d6000fd5b505050506040513d601f19601f8201168201806040525081019061034a9190610c93565b90506103558161082c565b8573ffffffffffffffffffffffffffffffffffffffff1663a9059cbb60008054906101000a900473ffffffffffffffffffffffffffffffffffffffff16836040518363ffffffff1660e01b81526004016103b0929190610cc0565b6020604051808303816000875af11580156103cf573d6000803e3d6000fd5b505050506040513d601f19601f820116820180604052508101906103f39190610b7c565b506104326040518060400160405280601181526020017f7472616465207472616e73666572206f6b0000000000000000000000000000008152506106fa565b60008054906101000a900473ffffffffffffffffffffffffffffffffffffffff1673ffffffffffffffffffffffffffffffffffffffff168585604051610479929190610be8565b6000604051808303816000865af19150503d80600081146104b6576040519150601f19603f3d011682016040523d82523d6000602084013e6104bb565b606091505b50809350819450505082610504576040517f08c379a00000000000000000000000000000000000000000000000000000000081526004016104fb90610d35565b60405180910390fd5b6105426040518060400160405280601581526020017f7472616465207365636f6e64207472616465206f6b00000000000000000000008152506106fa565b60008a73ffffffffffffffffffffffffffffffffffffffff166370a08231306040518263ffffffff1660e01b815260040161057d9190610ae3565b602060405180830381865afa15801561059a573d6000803e3d6000fd5b505050506040513d601f19601f820116820180604052508101906105be9190610c93565b90506105c98161082c565b8981101561060c576040517f08c379a000000000000000000000000000000000000000000000000000000000815260040161060390610da1565b60405180910390fd5b8a73ffffffffffffffffffffffffffffffffffffffff1663a9059cbb33836040518363ffffffff1660e01b8152600401610647929190610cc0565b6020604051808303816000875af1158015610666573d6000803e3d6000fd5b505050506040513d601f19601f8201168201806040525081019061068a9190610b7c565b506106c96040518060400160405280601181526020017f7472616465207472616e73666572206f6b0000000000000000000000000000008152506106fa565b5050505050505050505050565b60008054906101000a900473ffffffffffffffffffffffffffffffffffffffff1681565b6107908160405160240161070e9190610e40565b6040516020818303038152906040527f41304fac000000000000000000000000000000000000000000000000000000007bffffffffffffffffffffffffffffffffffffffffffffffffffffffff19166020820180517bffffffffffffffffffffffffffffffffffffffffffffffffffffffff83818316178352505050506108c5565b50565b610829816040516024016107a79190610ae3565b6040516020818303038152906040527f2c2ecbc2000000000000000000000000000000000000000000000000000000007bffffffffffffffffffffffffffffffffffffffffffffffffffffffff19166020820180517bffffffffffffffffffffffffffffffffffffffffffffffffffffffff83818316178352505050506108c5565b50565b6108c2816040516024016108409190610e62565b6040516020818303038152906040527ff82c50f1000000000000000000000000000000000000000000000000000000007bffffffffffffffffffffffffffffffffffffffffffffffffffffffff19166020820180517bffffffffffffffffffffffffffffffffffffffffffffffffffffffff83818316178352505050506108c5565b50565b6108dc816108d46108df610900565b63ffffffff16565b50565b60006a636f6e736f6c652e6c6f679050600080835160208501845afa505050565b61090b819050919050565b610913610e7d565b565b600080fd5b600080fd5b600073ffffffffffffffffffffffffffffffffffffffff82169050919050565b600061094a8261091f565b9050919050565b61095a8161093f565b811461096557600080fd5b50565b60008135905061097781610951565b92915050565b6000819050919050565b6109908161097d565b811461099b57600080fd5b50565b6000813590506109ad81610987565b92915050565b600080fd5b600080fd5b600080fd5b60008083601f8401126109d8576109d76109b3565b5b8235905067ffffffffffffffff8111156109f5576109f46109b8565b5b602083019150836001820283011115610a1157610a106109bd565b5b9250929050565b600080600080600080600060a0888a031215610a3757610a36610915565b5b6000610a458a828b01610968565b9750506020610a568a828b0161099e565b965050604088013567ffffffffffffffff811115610a7757610a7661091a565b5b610a838a828b016109c2565b95509550506060610a968a828b01610968565b935050608088013567ffffffffffffffff811115610ab757610ab661091a565b5b610ac38a828b016109c2565b925092505092959891949750929550565b610add8161093f565b82525050565b6000602082019050610af86000830184610ad4565b92915050565b610b078161097d565b82525050565b6000606082019050610b226000830186610ad4565b610b2f6020830185610ad4565b610b3c6040830184610afe565b949350505050565b60008115159050919050565b610b5981610b44565b8114610b6457600080fd5b50565b600081519050610b7681610b50565b92915050565b600060208284031215610b9257610b91610915565b5b6000610ba084828501610b67565b91505092915050565b600081905092915050565b82818337600083830152505050565b6000610bcf8385610ba9565b9350610bdc838584610bb4565b82840190509392505050565b6000610bf5828486610bc3565b91508190509392505050565b600082825260208201905092915050565b7f6669727374207472616465206661696c65640000000000000000000000000000600082015250565b6000610c48601283610c01565b9150610c5382610c12565b602082019050919050565b60006020820190508181036000830152610c7781610c3b565b9050919050565b600081519050610c8d81610987565b92915050565b600060208284031215610ca957610ca8610915565b5b6000610cb784828501610c7e565b91505092915050565b6000604082019050610cd56000830185610ad4565b610ce26020830184610afe565b9392505050565b7f7365636f6e64207472616465206661696c656400000000000000000000000000600082015250565b6000610d1f601383610c01565b9150610d2a82610ce9565b602082019050919050565b60006020820190508181036000830152610d4e81610d12565b9050919050565b7f6e6f742070726f76697469626c65000000000000000000000000000000000000600082015250565b6000610d8b600e83610c01565b9150610d9682610d55565b602082019050919050565b60006020820190508181036000830152610dba81610d7e565b9050919050565b600081519050919050565b60005b83811015610dea578082015181840152602081019050610dcf565b60008484015250505050565b6000601f19601f8301169050919050565b6000610e1282610dc1565b610e1c8185610c01565b9350610e2c818560208601610dcc565b610e3581610df6565b840191505092915050565b60006020820190508181036000830152610e5a8184610e07565b905092915050565b6000602082019050610e776000830184610afe565b92915050565b7f4e487b7100000000000000000000000000000000000000000000000000000000600052605160045260246000fdfea264697066735822122029c2adbf093e81c98bb2aa3e53636b45f2f642de47fb8d5a20e9079d5175313b64736f6c634300081c0033",
  "linkReferences": {},
  "deployedLinkReferences": {}
}