{
  "_format": "hh-sol-artifact-1",
  "contractName": "PancakeswapArbitrage",
  "sourceName": "contracts/PancakeswapArbitrage.sol",
  "abi": [
    {
      "inputs": [
        {
          "internalType": "address",
          "name": "_sra",
          "type": "address"
        }
      ],
      "stateMutability": "nonpayable",
      "type": "constructor"
    },
    {
      "inputs": [
        {
          "internalType": "address",
          "name": "inCoinAddress",
          "type": "address"
        },
        {
          "internalType": "uint256",
          "name": "approvingSwapIn",
          "type": "uint256"
        },
        {
          "internalType": "bytes",
          "name": "callData0",
          "type": "bytes"
        },
        {
          "internalType": "address",
          "name": "midCoinAddress",
          "type": "address"
        },
        {
          "internalType": "bytes",
          "name": "callData1",
          "type": "bytes"
        }
      ],
      "name": "attack",
      "outputs": [],
      "stateMutability": "nonpayable",
      "type": "function"
    },
    {
      "inputs": [],
      "name": "smartRouterAddress",
      "outputs": [
        {
          "internalType": "address",
          "name": "",
          "type": "address"
        }
      ],
      "stateMutability": "view",
      "type": "function"
    }
  ],
  "bytecode": "0x608060405234801561001057600080fd5b50604051610c2c380380610c2c8339818101604052810190610032919061014a565b600073ffffffffffffffffffffffffffffffffffffffff168173ffffffffffffffffffffffffffffffffffffffff16036100a1576040517f08c379a0000000000000000000000000000000000000000000000000000000008152600401610098906101d4565b60405180910390fd5b806000806101000a81548173ffffffffffffffffffffffffffffffffffffffff021916908373ffffffffffffffffffffffffffffffffffffffff160217905550506101f4565b600080fd5b600073ffffffffffffffffffffffffffffffffffffffff82169050919050565b6000610117826100ec565b9050919050565b6101278161010c565b811461013257600080fd5b50565b6000815190506101448161011e565b92915050565b6000602082840312156101605761015f6100e7565b5b600061016e84828501610135565b91505092915050565b600082825260208201905092915050565b7f496e76616c696420726f75746572206164647265737300000000000000000000600082015250565b60006101be601683610177565b91506101c982610188565b602082019050919050565b600060208201905081810360008301526101ed816101b1565b9050919050565b610a29806102036000396000f3fe608060405234801561001057600080fd5b50600436106100365760003560e01c8063bf9c11d91461003b578063d62b173e14610057575b600080fd5b6100556004803603810190610050919061064a565b610075565b005b61005f610523565b60405161006c9190610715565b60405180910390f35b8673ffffffffffffffffffffffffffffffffffffffff166323b872dd3360008054906101000a900473ffffffffffffffffffffffffffffffffffffffff16896040518463ffffffff1660e01b81526004016100d29392919061073f565b6020604051808303816000875af11580156100f1573d6000803e3d6000fd5b505050506040513d601f19601f8201168201806040525081019061011591906107ae565b5060008060008054906101000a900473ffffffffffffffffffffffffffffffffffffffff1673ffffffffffffffffffffffffffffffffffffffff16878760405161016092919061081a565b6000604051808303816000865af19150503d806000811461019d576040519150601f19603f3d011682016040523d82523d6000602084013e6101a2565b606091505b5091509150816101e7576040517f08c379a00000000000000000000000000000000000000000000000000000000081526004016101de90610890565b60405180910390fd5b60008573ffffffffffffffffffffffffffffffffffffffff166370a08231306040518263ffffffff1660e01b81526004016102229190610715565b602060405180830381865afa15801561023f573d6000803e3d6000fd5b505050506040513d601f19601f8201168201806040525081019061026391906108c5565b90508573ffffffffffffffffffffffffffffffffffffffff1663a9059cbb60008054906101000a900473ffffffffffffffffffffffffffffffffffffffff16836040518363ffffffff1660e01b81526004016102c09291906108f2565b6020604051808303816000875af11580156102df573d6000803e3d6000fd5b505050506040513d601f19601f8201168201806040525081019061030391906107ae565b5060008054906101000a900473ffffffffffffffffffffffffffffffffffffffff1673ffffffffffffffffffffffffffffffffffffffff16858560405161034b92919061081a565b6000604051808303816000865af19150503d8060008114610388576040519150601f19603f3d011682016040523d82523d6000602084013e61038d565b606091505b508093508194505050826103d6576040517f08c379a00000000000000000000000000000000000000000000000000000000081526004016103cd90610967565b60405180910390fd5b60008a73ffffffffffffffffffffffffffffffffffffffff166370a08231306040518263ffffffff1660e01b81526004016104119190610715565b602060405180830381865afa15801561042e573d6000803e3d6000fd5b505050506040513d601f19601f8201168201806040525081019061045291906108c5565b905089811015610497576040517f08c379a000000000000000000000000000000000000000000000000000000000815260040161048e906109d3565b60405180910390fd5b8a73ffffffffffffffffffffffffffffffffffffffff1663a9059cbb33836040518363ffffffff1660e01b81526004016104d29291906108f2565b6020604051808303816000875af11580156104f1573d6000803e3d6000fd5b505050506040513d601f19601f8201168201806040525081019061051591906107ae565b505050505050505050505050565b60008054906101000a900473ffffffffffffffffffffffffffffffffffffffff1681565b600080fd5b600080fd5b600073ffffffffffffffffffffffffffffffffffffffff82169050919050565b600061057c82610551565b9050919050565b61058c81610571565b811461059757600080fd5b50565b6000813590506105a981610583565b92915050565b6000819050919050565b6105c2816105af565b81146105cd57600080fd5b50565b6000813590506105df816105b9565b92915050565b600080fd5b600080fd5b600080fd5b60008083601f84011261060a576106096105e5565b5b8235905067ffffffffffffffff811115610627576106266105ea565b5b602083019150836001820283011115610643576106426105ef565b5b9250929050565b600080600080600080600060a0888a03121561066957610668610547565b5b60006106778a828b0161059a565b97505060206106888a828b016105d0565b965050604088013567ffffffffffffffff8111156106a9576106a861054c565b5b6106b58a828b016105f4565b955095505060606106c88a828b0161059a565b935050608088013567ffffffffffffffff8111156106e9576106e861054c565b5b6106f58a828b016105f4565b925092505092959891949750929550565b61070f81610571565b82525050565b600060208201905061072a6000830184610706565b92915050565b610739816105af565b82525050565b60006060820190506107546000830186610706565b6107616020830185610706565b61076e6040830184610730565b949350505050565b60008115159050919050565b61078b81610776565b811461079657600080fd5b50565b6000815190506107a881610782565b92915050565b6000602082840312156107c4576107c3610547565b5b60006107d284828501610799565b91505092915050565b600081905092915050565b82818337600083830152505050565b600061080183856107db565b935061080e8385846107e6565b82840190509392505050565b60006108278284866107f5565b91508190509392505050565b600082825260208201905092915050565b7f6669727374207472616465206661696c65640000000000000000000000000000600082015250565b600061087a601283610833565b915061088582610844565b602082019050919050565b600060208201905081810360008301526108a98161086d565b9050919050565b6000815190506108bf816105b9565b92915050565b6000602082840312156108db576108da610547565b5b60006108e9848285016108b0565b91505092915050565b60006040820190506109076000830185610706565b6109146020830184610730565b9392505050565b7f7365636f6e64207472616465206661696c656400000000000000000000000000600082015250565b6000610951601383610833565b915061095c8261091b565b602082019050919050565b6000602082019050818103600083015261098081610944565b9050919050565b7f6e6f742070726f66697469626c65000000000000000000000000000000000000600082015250565b60006109bd600e83610833565b91506109c882610987565b602082019050919050565b600060208201905081810360008301526109ec816109b0565b905091905056fea2646970667358221220d7182157d444b1c1b18beccb35a9d756d48f126ffd750afe128e72c720bd511764736f6c634300081c0033",
  "linkReferences": {},
  "deployedLinkReferences": {}
}